:100000000C942A000C943C000C94CF010C94FB013E
:100010000C9494010C946B010C9442010C94190102
:100020000C94F0000C94C7000C9475000C943C00E8
:100030000C943C000C943C000C943C000C943C0050
:100040000C9442000C943C000C943C000C9427024D
:100050000C949E0011241FBECFE5D4E0DEBFCDBFBF
:1000600020E0A0E6B0E001C01D92A239B207E1F79E
:100070000E9453020C9454020C94000086B1877FB6
:1000800086B908951F920F920FB60F9211242F93E5
:100090003F934F935F936F937F938F939F93AF9310
:1000A000BF93EF93FF93E0919000F091910024B102
:1000B00085B190E0982F8827822B91838083E0E0A0
:1000C000F0E009950E943E00FF91EF91BF91AF9142
:1000D0009F918F917F916F915F914F913F912F9160
:1000E0000F900FBE0F901F9018951F920F920FB692
:1000F0000F9211242F933F934F935F936F937F93AE
:100100008F939F93AF93BF93EF93FF93E0917A0008
:10011000F0917B00309709F00995FF91EF91BF9125
:10012000AF919F918F917F916F915F914F913F918F
:100130002F910F900FBE0F901F9018951F920F9246
:100140000FB60F9211242F933F934F935F936F93AA
:100150007F938F939F93AF93BF93EF93FF93E09120
:100160008E00F0918F00309709F00995FF91EF9183
:10017000BF91AF919F918F917F916F915F914F91BF
:100180003F912F910F900FBE0F901F9018951F92C7
:100190000F920FB60F9211242F933F934F935F93BB
:1001A0006F937F938F939F93AF93BF93EF93FF933F
:1001B000E0917800F0917900309709F00995FF916E
:1001C000EF91BF91AF919F918F917F916F915F91CF
:1001D0004F913F912F910F900FBE0F901F90189548
:1001E0001F920F920FB60F9211242F933F934F93AC
:1001F0005F936F937F938F939F93AF93BF93EF938F
:10020000FF93E0917600F0917700309709F009951F
:10021000FF91EF91BF91AF919F918F917F916F91DE
:100220005F914F913F912F910F900FBE0F901F90B4
:1002300018951F920F920FB60F9211242F933F9390
:100240004F935F936F937F938F939F93AF93BF93DE
:10025000EF93FF93E0917400F0917500309709F0EF
:100260000995FF91EF91BF91AF919F918F917F91F0
:100270006F915F914F913F912F910F900FBE0F9013
:100280001F9018951F920F920FB60F9211242F9363
:100290003F934F935F936F937F938F939F93AF930E
:1002A000BF93EF93FF93E0917200F091730030974A
:1002B00009F00995FF91EF91BF91AF919F918F91B7
:1002C0007F916F915F914F913F912F910F900FBE52
:1002D0000F901F9018951F920F920FB60F92112436
:1002E0002F933F934F935F936F937F938F939F933E
:1002F000AF93BF93EF93FF93E0917000F091710083
:10030000309709F00995FF91EF91BF91AF919F91BF
:100310008F917F916F915F914F913F912F910F90AE
:100320000FBE0F901F9018951F920F920FB60F924D
:1003300011242F933F934F935F936F937F938F93EA
:100340009F93AF93BF93EF93FF93E0916E00F09173
:100350006F00309709F00995FF91EF91BF91AF9130
:100360009F918F917F916F915F914F913F912F91CD
:100370000F900FBE0F901F9018959BEF980F933022
:1003800068F44AB721E030E0B90102C0660F771F78
:100390008A95E2F7CB01809584238ABF08951F9246
:1003A0000F920FB60F9211242F933F934F935F93A9
:1003B0006F937F938F939F93AF93BF93EF93FF932D
:1003C000E0916000F0916100309721F0099586E09E
:1003D0000E94BD01FF91EF91BF91AF919F918F91CD
:1003E0007F916F915F914F913F912F910F900FBE31
:1003F0000F901F9018951F920F920FB60F92112415
:100400002F933F934F935F936F937F938F939F931C
:10041000AF93BF93EF93FF93E0916200F09163007D
:10042000309721F0099587E00E94BD01FF91EF917F
:10043000BF91AF919F918F917F916F915F914F91FC
:100440003F912F910F900FBE0F901F9018951F9204
:100450000F920FB60F9211242F933F934F935F93F8
:100460006F937F938F939F93AF93BF93EF93FF937C
:10047000E0916400F0916500309721F0099585E0E6
:100480000E94BD01FF91EF91BF91AF919F918F911C
:100490007F916F915F914F913F912F910F900FBE80
:0C04A0000F901F901895FFCFF894FFCF2D
:00000001FF
