S0180000424D535F4D4B495F41544D45474133322E7372656377
S11300000C942A000C9440030C946C030C949803F5
S11300100C9405030C94DC020C94B3020C948A0235
S11300200C9461020C9438020C940F020C94E601B7
S11300300C9447000C9447000C9447000C94470020
S11300400C94B3010C9447000C9447000C944700A3
S11300500C94470011241FBECFE5D8E0DEBFCDBF0E
S113006010E0A0E6B0E0E8EDFEE002C005900D92DD
S1130070A836B107D9F720E0A8E6B0E001C01D9288
S1130080A039B207E1F70E945B050C946A070C944F
S11300900000843008F072C0683008F06FC042304D
S11300A008F06CC0813001F130F08230B1F183305E
S11300B009F44CC00895413059F42AB381E090E02A
S11300C002C0880F991F6A95E2F7822B8ABB0895B4
S11300D02AB381E090E002C0880F991F6A95E2F785
S11300E0809582238ABB0895413059F427B381E077
S11300F090E002C0880F991F6A95E2F7822B87BBB4
S1130100089527B381E090E002C0880F991F6A9593
S1130110E2F78095822387BB0895413059F424B3D4
S113012081E090E002C0880F991F6A95E2F7822B64
S113013084BB089524B381E090E002C0880F991F26
S11301406A95E2F78095822384BB0895413059F47F
S113015021B381E090E002C0880F991F6A95E2F70D
S1130160822B81BB089521B381E090E002C0880F07
S1130170991F6A95E2F78095822381BB08958430A4
S113018008F072C0683008F06FC0423008F06CC0EC
S1130190813001F130F08230B1F1833009F44CC088
S11301A00895413059F42BB381E090E002C0880FE8
S11301B0991F6A95E2F7822B8BBB08952BB381E0DC
S11301C090E002C0880F991F6A95E2F78095822318
S11301D08BBB0895413059F428B381E090E002C00C
S11301E0880F991F6A95E2F7822B88BB089528B37C
S11301F081E090E002C0880F991F6A95E2F780952C
S1130200822388BB0895413059F425B381E090E0FE
S113021002C0880F991F6A95E2F7822B85BB089567
S113022025B381E090E002C0880F991F6A95E2F738
S11302308095822385BB0895413059F422B381E02F
S113024090E002C0880F991F6A95E2F7822B82BB67
S1130250089522B381E090E002C0880F991F6A9547
S1130260E2F78095822382BB0895843098F481302C
S113027049F028F0823049F0833051F008958FEF2F
S11302808ABB08958FEF87BB08958FEF84BB0895D1
S11302908FEF81BB0895843078F4813041F028F0E9
S11302A0823039F0833039F008956BBB089568BB10
S11302B0089565BB089562BB089587B18F7B87B9A4
S11302C087B18F7787B987B18F7D87B986B1887FEA
S11302D086B986B1866086B986B1806286B980B7F0
S11302E0817180BF80B780BF86B1806886B9089568
S11302F086B1877F86B9089586B1806186B90895ED
S113030086B1806486B9089597B1907E97B997B104
S1130310892B87B90E94800180E090E0DC0103C052
S11303200196A11DB11D349907C088382DE09207AC
S113033021E0A207B105A0F388389D40A140B10592
S113034079F08FE19EE40197F1F700C000000E946C
S11303507C0124B185B190E0982F8827822B0895E1
S113036080E090E008951F920F920FB60F9211242F
S11303702F933F934F935F936F937F938F939F93A9
S1130380AF93BF93EF93FF93E0918E00F0918F00B2
S113039024B185B190E0982F8827822B91838083A4
S11303A0E0E0F0E009950E947801FF91EF91BF91A0
S11303B0AF919F918F917F916F915F914F913F91F9
S11303C02F910F900FBE0F901F9018951F920F92B0
S11303D00FB60F9211242F933F934F935F936F9314
S11303E07F938F939F93AF93BF93EF93FF93E0918A
S11303F08400F0918500309709F00995FF91EF9101
S1130400BF91AF919F918F917F916F915F914F9128
S11304103F912F910F900FBE0F901F9018951F9230
S11304200F920FB60F9211242F933F934F935F9324
S11304306F937F938F939F93AF93BF93EF93FF93A8
S1130440E0918200F0918300309709F00995FF91C3
S1130450EF91BF91AF919F918F917F916F915F9138
S11304604F913F912F910F900FBE0F901F901895B1
S11304701F920F920FB60F9211242F933F934F9315
S11304805F936F937F938F939F93AF93BF93EF93F8
S1130490FF93E0918000F0918100309709F0099575
S11304A0FF91EF91BF91AF919F918F917F916F9148
S11304B05F914F913F912F910F900FBE0F901F901E
S11304C018951F920F920FB60F9211242F933F93FA
S11304D04F935F936F937F938F939F93AF93BF9348
S11304E0EF93FF93E0917E00F0917F00309709F045
S11304F00995FF91EF91BF91AF919F918F917F915A
S11305006F915F914F913F912F910F900FBE0F907C
S11305101F9018951F920F920FB60F9211242F93CC
S11305203F934F935F936F937F938F939F93AF9377
S1130530BF93EF93FF93E0917C00F0917D0030979F
S113054009F00995FF91EF91BF91AF919F918F9120
S11305507F916F915F914F913F912F910F900FBEBB
S11305600F901F9018951F920F920FB60F9211249F
S11305702F933F934F935F936F937F938F939F93A7
S1130580AF93BF93EF93FF93E0917A00F0917B00D8
S1130590309709F00995FF91EF91BF91AF919F9129
S11305A08F917F916F915F914F913F912F910F9018
S11305B00FBE0F901F9018951F920F920FB60F92B7
S11305C011242F933F934F935F936F937F938F9354
S11305D09F93AF93BF93EF93FF93E0917800F091D3
S11305E07900309709F00995FF91EF91BF91AF9190
S11305F09F918F917F916F915F914F913F912F9137
S11306000F900FBE0F901F9018951F920F920FB668
S11306100F9211242F933F934F935F936F937F9384
S11306208F939F93AF93BF93EF93FF93E0917600E3
S1130630F0917700309709F00995FF91EF91BF9100
S1130640AF919F918F917F916F915F914F913F9166
S11306502F910F900FBE0F901F9018959BEF980F3E
S1130660933068F44AB721E030E0B90102C0660F64
S1130670771F8A95E2F7CB01809584238ABF08957A
S11306801F920F920FB60F9211242F933F934F9303
S11306905F936F937F938F939F93AF93BF93EF93E6
S11306A0FF93E0916800F0916900309721F009957B
S11306B086E00E942E03FF91EF91BF91AF919F912D
S11306C08F917F916F915F914F913F912F910F90F7
S11306D00FBE0F901F9018951F920F920FB60F9296
S11306E011242F933F934F935F936F937F938F9333
S11306F09F93AF93BF93EF93FF93E0916A00F091C0
S11307006B00309721F0099587E00E942E03FF913A
S1130710EF91BF91AF919F918F917F916F915F9175
S11307204F913F912F910F900FBE0F901F901895EE
S11307301F920F920FB60F9211242F933F934F9352
S11307405F936F937F938F939F93AF93BF93EF9335
S1130750FF93E0916C00F0916D00309721F00995C2
S113076085E00E942E03FF91EF91BF91AF919F917D
S11307708F917F916F915F914F913F912F910F9046
S11307800FBE0F901F901895CF93C82F40E060E0E4
S113079081E00E94BF0040E061E081E00E94BF0070
S11307A06C2F82E00E944B0141E062E081E00E94F4
S11307B0BF0082E08A95F1F700C040E062E081E08A
S11307C00E94BF00CF91089541E060E081E00E9463
S11307D0490041E061E081E00E94490041E062E0BB
S11307E081E00E9449006FEF82E00E9435012FEB07
S11307F08AED90E0215080409040E1F700C0000075
S113080088E30E94C40325E82A95F1F700008FE0ED
S11308100E94C40385E88A95F1F7000081E00E94F4
S1130820C4038FE99FE00197F1F700C0000086E060
S11308300E94C40395E89A95F1F700000895CF93B8
S1130840C82F41E060E081E00E94BF0040E061E029
S113085081E00E94BF006C2F82E00E944B0141E0C6
S113086062E081E00E94BF0082E08A95F1F700C057
S113087040E062E081E00E94BF008FE19EE40197C6
S1130880F1F700C00000CF9108950F931F93CF9309
S1130890009761F08C01C0E003C00E941F04CF5F89
S11308A0F801EC0FF11D80818111F7CFCF911F91D9
S11308B00F9108958F929F92AF92BF92CF92DF9241
S11308C0EF92FF921F93CF93DF93CDB7DEB72A97B2
S11308D00FB6F894DEBF0FBECDBF6B017C0160E0A4
S11308E070E0CB0110E025C0DC01CB01880F991F1B
S11308F0AA1FBB1F4C015D01880C991CAA1CBB1CC0
S1130900880C991CAA1CBB1C880E991EAA1EBB1E0F
S1130910C701B6012AE030E040E050E00E944807F9
S1130920680D791D8A1D9B1DC22ED32EE42EF52E33
S11309301F5FC114D104E104F104B1F6F12C13C01A
S11309402AE030E040E050E00E944807E1E0F0E0B7
S1130950EC0FFD1FEC0DFD1D605D6083622F732F96
S1130960842F952FF394CF2C0F2C000CDD08212F0E
S113097030E0C216D30624F3E1E0F0E0EC0FFD1FF3
S1130980E20FF31F1082CE0101960E9445042A96BD
S11309900FB6F894DEBF0FBECDBFDF91CF911F918C
S11309A0FF90EF90DF90CF90BF90AF909F908F908B
S11309B008958F929F92AF92BF92CF92DF92EF925F
S11309C0FF924B015C0120E030E0A9010E94830505
S11309D088233CF48DE20E941F04B7FAB094B7F860
S11309E0B094C501B4010E94FA050E945A0480E043
S11309F0C12CD12C7601C39413C0CC0CDD1CEE1C8D
S1130A00FF1CB701A601440F551F661F771F440F33
S1130A10551F661F771FC40ED51EE61EF71E8F5F77
S1130A20823058F38EE20E941F04C701B6010E946F
S1130A302B06A50194010E94DB060E94FA05A7017A
S1130A4096010E9448070E945A04FF90EF90DF909D
S1130A50CF90BF90AF909F908F9008950E945D01BA
S1130A60789408958230F0F40E948401BC01660FEA
S1130A70771F660F771F680F791F80E090E00E9450
S1130A80290620E030E040E85AE30E94DB0622E930
S1130A9034E249E45FE30E948805562F472F382F3C
S1130AA0292F04C050E040E030E020E0652F742F8F
S1130AB0832F922F08950E942E050E94E40380E064
S1130AC00E9432056B017C0180E690E00E9445049F
S1130AD08FEC97E00197F1F700C00000C701B60161
S1130AE00E94D9048FEC97E00197F1F700C0000051
S1130AF085E690E00E9445048FEC97E00197F1F7BA
S1130B0000C00000FFCF0E94660608F481E008954B
S1130B100E949C050C94A1060E949A0658F00E941B
S1130B20930640F029F45F3F29F00C948A06511192
S1130B300C94D5060C9490060E94B20668F399238F
S1130B40B1F3552391F3951B550BBB27AA276217C5
S1130B507307840738F09F5F5F4F220F331F441FD2
S1130B60AA1FA9F335D00E2E3AF0E0E832D0915006
S1130B705040E695001CCAF72BD0FE2F29D0660FF3
S1130B80771F881FBB1F261737074807AB07B0E836
S1130B9009F0BB0B802DBF01FF2793585F4F3AF03C
S1130BA09E3F510578F00C948A060C94D5065F3F5D
S1130BB0E4F3983ED4F3869577956795B795F795C2
S1130BC09F5FC9F7880F911D9695879597F90895AA
S1130BD0E1E0660F771F881FBB1F62177307840746
S1130BE0BA0720F0621B730B840BBA0BEE1F88F755
S1130BF0E09508950E94BA0688F09F5798F0B92F9F
S1130C009927B751B0F0E1F0660F771F881F991F3D
S1130C101AF0BA95C9F714C0B13091F00E94D40605
S1130C20B1E008950C94D406672F782F8827B85F15
S1130C3039F0B93FCCF3869577956795B395D9F795
S1130C403EF490958095709561957F4F8F4F9F4F9F
S1130C500895E89409C097FB3EF4909580957095AB
S1130C6061957F4F8F4F9F4F9923A9F0F92F96E9F4
S1130C70BB279395F695879577956795B795F11169
S1130C80F8CFFAF4BB0F11F460FF1BC06F5F7F4F06
S1130C908F4F9F4F16C0882311F096E911C0772318
S1130CA021F09EE8872F762F05C0662371F096E821
S1130CB0862F70E060E02AF09A95660F771F881FF0
S1130CC0DAF7880F9695879597F90895990F000894
S1130CD0550FAA0BE0E8FEEF16161706E807F9070A
S1130CE0C0F012161306E407F50798F0621B730BA5
S1130CF0840B950B39F40A2661F0232B242B252B26
S1130D0021F408950A2609F4A140A6958FEF811DC8
S1130D10811D089597F99F6780E870E060E0089569
S1130D209FEF80EC089500240A94161617061806FF
S1130D300906089500240A941216130614060506DB
S1130D400895092E0394000C11F4882352F0BB0F6C
S1130D5040F4BF2B11F460FF04C06F5F7F4F8F4FCF
S1130D609F4F089557FD9058440F551F59F05F3F0A
S1130D7071F04795880F97FB991F61F09F3F79F0B9
S1130D8087950895121613061406551FF2CF46953B
S1130D90F1DF08C0161617061806991FF1CF8695BD
S1130DA07105610508940895E894BB2766277727A1
S1130DB0CB0197F908950E94EE060C94A1060E94B7
S1130DC0930638F00E949A0620F0952311F00C94B3
S1130DD08A060C94900611240C94D5060E94B2063F
S1130DE070F3959FC1F3950F50E0551F629FF0017A
S1130DF0729FBB27F00DB11D639FAA27F00DB11D93
S1130E00AA1F649F6627B00DA11D661F829F22271B
S1130E10B00DA11D621F739FB00DA11D621F839FA2
S1130E20A00D611D221F749F3327A00D611D231F78
S1130E30849F600D211D822F762F6A2F11249F57C6
S1130E4050409AF0F1F088234AF0EE0FFF1FBB1FC9
S1130E50661F771F881F91505040A9F79E3F510588
S1130E6080F00C948A060C94D5065F3FE4F3983E18
S1130E70D4F3869577956795B795F795E7959F5F32
S1130E80C1F7FE2B880F911D9695879597F90895C4
S1130E90A1E21A2EAA1BBB1BFD010DC0AA1FBB1F7A
S1130EA0EE1FFF1FA217B307E407F50720F0A21BEC
S1130EB0B30BE40BF50B661F771F881F991F1A9459
S1130EC069F760957095809590959B01AC01BD0183
S10B0ED0CF010895F894FFCF4F
S10B0ED856203D2000205600C5
S9030000FC
