:100000000C942A000C94E5030C9411040C943D0408
:100010000C942A030C9401030C94D8020C94AF02A4
:100020000C9486020C945D020C9434020C940B0226
:100030000C9447000C9447000C9447000C94470024
:100040000C94B8010C9447000C9447000C944700A2
:100050000C94470011241FBECFE5D8E0DEBFCDBF12
:1000600010E0A0E6B0E0E6ECF1E102C005900D92F0
:10007000AA36B107D9F720E0AAE6B0E001C01D9288
:10008000A339B207E1F70E94B8060C94E1080C947A
:1000900000000895843008F072C0683008F06FC026
:1000A000423008F06CC0813001F130F08230B1F1A3
:1000B000833009F44CC00895413059F42AB381E0EB
:1000C00090E002C0880F991F6A95E2F7822B8ABBE5
:1000D00008952AB381E090E002C0880F991F6A95C5
:1000E000E2F7809582238ABB0895413059F427B303
:1000F00081E090E002C0880F991F6A95E2F7822B99
:1001000087BB089527B381E090E002C0880F991F54
:100110006A95E2F78095822387BB0895413059F4B0
:1001200024B381E090E002C0880F991F6A95E2F73E
:10013000822B84BB089524B381E090E002C0880F35
:10014000991F6A95E2F78095822384BB0895413018
:1001500059F421B381E090E002C0880F991F6A959D
:10016000E2F7822B81BB089521B381E090E002C0C9
:10017000880F991F6A95E2F78095822381BB0895C5
:10018000843008F072C0683008F06FC0423008F068
:100190006CC0813001F130F08230B1F1833009F46C
:1001A0004CC00895413059F42BB381E090E002C077
:1001B000880F991F6A95E2F7822B8BBB08952BB3AA
:1001C00081E090E002C0880F991F6A95E2F7809560
:1001D00082238BBB0895413059F428B381E090E02D
:1001E00002C0880F991F6A95E2F7822B88BB089599
:1001F00028B381E090E002C0880F991F6A95E2F76A
:100200008095822388BB0895413059F425B381E05D
:1002100090E002C0880F991F6A95E2F7822B85BB98
:10022000089525B381E090E002C0880F991F6A9578
:10023000E2F78095822385BB0895413059F422B3BB
:1002400081E090E002C0880F991F6A95E2F7822B47
:1002500082BB089522B381E090E002C0880F991F0D
:100260006A95E2F78095822382BB0895843098F4E2
:10027000813049F028F0823049F0833051F0089500
:100280008FEF8ABB08958FEF87BB08958FEF84BBF4
:1002900008958FEF81BB0895843078F4813041F068
:1002A00028F0823039F0833039F008956BBB08951F
:1002B00068BB089565BB089562BB08958FB78068D9
:1002C0008FBF089587B18F7B87B987B18F7787B943
:1002D00087B18F7D87B986B1887F86B986B1866000
:1002E00086B986B1806286B980B7817180BF80B7D8
:1002F00080BF86B1806886B9089586B1877F86B948
:10030000089586B1806186B9089586B1806486B902
:10031000089597B1907E97B997B1892B87B90E94BC
:10032000850180E090E0DC0103C00196A11DB11DB4
:10033000349907C088382DE0920721E0A207B10563
:10034000A0F388389D40A140B10579F08FE19EE48B
:100350000197F1F700C000000E94810124B185B12E
:1003600090E0982F8827822B089580E090E00895F0
:100370001F920F920FB60F9211242F933F934F931A
:100380005F936F937F938F939F93AF93BF93EF93FD
:10039000FF93E0919100F091920024B185B190E03B
:1003A000982F8827822B91838083E0E0F0E00995E5
:1003B0000E947D01FF91EF91BF91AF919F918F912D
:1003C0007F916F915F914F913F912F910F900FBE51
:1003D0000F901F90189583B78F7B83BF83B7877F5C
:1003E00083BF89B7816089BF83B78B7F83BF83B7A2
:1003F000826083BF83B78E7F83BF089582BF0895D5
:10040000009741F0E62FF0E0EE0FFF1FEF58FF4F8F
:100410009183808308951F920F920FB60F9211243B
:100420002F933F934F935F936F937F938F939F93FC
:10043000AF93BF93EF93FF93E0918700F091880013
:10044000309709F00995FF91EF91BF91AF919F917E
:100450008F917F916F915F914F913F912F910F906D
:100460000FBE0F901F9018951F920F920FB60F920C
:1004700011242F933F934F935F936F937F938F93A9
:100480009F93AF93BF93EF93FF93E0918500F0911B
:100490008600309709F00995FF91EF91BF91AF91D8
:1004A0009F918F917F916F915F914F913F912F918C
:1004B0000F900FBE0F901F9018951F920F920FB6BE
:1004C0000F9211242F933F934F935F936F937F93DA
:1004D0008F939F93AF93BF93EF93FF93E09183002C
:1004E000F0918400309709F00995FF91EF91BF9149
:1004F000AF919F918F917F916F915F914F913F91BC
:100500002F910F900FBE0F901F9018951F920F9272
:100510000FB60F9211242F933F934F935F936F93D6
:100520007F938F939F93AF93BF93EF93FF93E0914C
:100530008100F0918200309709F00995FF91EF91C9
:10054000BF91AF919F918F917F916F915F914F91EB
:100550003F912F910F900FBE0F901F9018951F92F3
:100560000F920FB60F9211242F933F934F935F93E7
:100570006F937F938F939F93AF93BF93EF93FF936B
:10058000E0917F00F0918000309709F00995FF918C
:10059000EF91BF91AF919F918F917F916F915F91FB
:1005A0004F913F912F910F900FBE0F901F90189574
:1005B0001F920F920FB60F9211242F933F934F93D8
:1005C0005F936F937F938F939F93AF93BF93EF93BB
:1005D000FF93E0917D00F0917E00309709F009953E
:1005E000FF91EF91BF91AF919F918F917F916F910B
:1005F0005F914F913F912F910F900FBE0F901F90E1
:1006000018951F920F920FB60F9211242F933F93BC
:100610004F935F936F937F938F939F93AF93BF930A
:10062000EF93FF93E0917B00F0917C00309709F00D
:100630000995FF91EF91BF91AF919F918F917F911C
:100640006F915F914F913F912F910F900FBE0F903F
:100650001F9018951F920F920FB60F9211242F938F
:100660003F934F935F936F937F938F939F93AF933A
:10067000BF93EF93FF93E0917900F0917A00309768
:1006800009F00995FF91EF91BF91AF919F918F91E3
:100690007F916F915F914F913F912F910F900FBE7E
:1006A0000F901F90189585B7816085BF85B78D7FA6
:1006B00085BF0895663031F0673041F1653009F04B
:1006C00055C048C0813069F028F0823089F083300D
:1006D000B1F0089585B78E7F85BF85B7826085BFED
:1006E000089585B7816085BF85B7826085BF08950D
:1006F00085B78E7F85BF85B78D7F85BF089585B708
:10070000816085BF85B78D7F85BF0895813069F091
:1007100028F0823089F08330B1F0089585B78B7F5F
:1007200085BF85B7886085BF089585B7846085BF1C
:1007300085B7886085BF089585B78B7F85BF85B7EE
:10074000877F85BF089585B7846085BF85B7877F1C
:1007500085BF0895882319F0813029F0089584B762
:100760008F7B84BF089584B7806484BF08959BEF16
:10077000980F933060F44BB721E030E0B90102C02C
:10078000660F771F8A95E2F7CB01842B8BBF089504
:100790009BEF980F933068F44AB721E030E0B9013D
:1007A00002C0660F771F8A95E2F7CB0180958423FC
:1007B0008ABF0895009741F0E62FF0E0EE0FFF1F8B
:1007C000E559FF4F9183808308951F920F920FB6D2
:1007D0000F9211242F933F934F935F936F937F93C7
:1007E0008F939F93AF93BF93EF93FF93E0916B0031
:1007F000F0916C00309721F0099586E00E94C803C3
:10080000FF91EF91BF91AF919F918F917F916F91E8
:100810005F914F913F912F910F900FBE0F901F90BE
:1008200018951F920F920FB60F9211242F933F939A
:100830004F935F936F937F938F939F93AF93BF93E8
:10084000EF93FF93E0916D00F0916E00309721F0EF
:10085000099587E00E94C803FF91EF91BF91AF9186
:100860009F918F917F916F915F914F913F912F91C8
:100870000F900FBE0F901F9018951F920F920FB6FA
:100880000F9211242F933F934F935F936F937F9316
:100890008F939F93AF93BF93EF93FF93E0916F007C
:1008A000F0917000309721F0099585E00E94C8030F
:1008B000FF91EF91BF91AF919F918F917F916F9138
:1008C0005F914F913F912F910F900FBE0F901F900E
:1008D0001895CF93C82F40E060E081E00E94C000EF
:1008E00040E061E081E00E94C0006C2F82E00E9445
:1008F0004C0141E062E081E00E94C00082E08A9504
:10090000F1F700C040E062E081E00E94C000CF91BA
:10091000089541E060E081E00E944A0041E061E02A
:1009200081E00E944A0041E062E081E00E944A00CA
:100930006FEF82E00E9436012FEB8AED90E02150AC
:1009400080409040E1F700C0000088E30E94690405
:1009500025E82A95F1F700008FE00E94690485E8F8
:100960008A95F1F7000081E00E9469048FE99FE019
:100970000197F1F700C0000086E00E94690495E845
:100980009A95F1F70000089581E00E9469048FE9CB
:100990009FE00197F1F700C00000089580916A0080
:1009A0008F5F80936A000E94C40481E0809360009E
:1009B000089580916A00815080936A000E94C40467
:1009C00081E0809360000895CF93C82F41E060E0FC
:1009D00081E00E94C00040E061E081E00E94C00030
:1009E0006C2F82E00E944C0141E062E081E00E94B5
:1009F000C00082E08A95F1F700C040E062E081E04B
:100A00000E94C0008FE19EE40197F1F700C0000052
:100A1000CF9108950F931F93CF93009761F08C01AE
:100A2000C0E003C00E94E404CF5FF801EC0FF11DA9
:100A300080818111F7CFCF911F910F9108958F92EF
:100A40009F92AF92BF92CF92DF92EF92FF921F934D
:100A5000CF93DF93CDB7DEB72A970FB6F894DEBFFA
:100A60000FBECDBF6B017C0160E070E0CB0110E0F8
:100A700025C0DC01CB01880F991FAA1FBB1F4C01A9
:100A80005D01880C991CAA1CBB1C880C991CAA1C13
:100A9000BB1C880E991EAA1EBB1EC701B6012AE008
:100AA00030E040E050E00E94BF08680D791D8A1DCB
:100AB0009B1DC22ED32EE42EF52E1F5FC114D10430
:100AC000E104F104B1F6F12C13C02AE030E040E07B
:100AD00050E00E94BF08E1E0F0E0EC0FFD1FEC0DDC
:100AE000FD1D605D6083622F732F842F952FF3941B
:100AF000CF2C0F2C000CDD08212F30E0C216D306BE
:100B000024F3E1E0F0E0EC0FFD1FE20FF31F108291
:100B1000CE0101960E940A052A960FB6F894DEBF10
:100B20000FBECDBFDF91CF911F91FF90EF90DF906F
:100B3000CF90BF90AF909F908F900895613019F043
:100B4000623029F0089580580E9469040895805405
:100B50000E94690408950E9462010E945E010E9441
:100B6000530366E081E00E945A0386E00E94B703C7
:100B700060E08EEC94E00E94DA0367E081E00E947E
:100B80005A0387E00E94B70361E089ED94E00E9478
:100B9000DA030E94EB016BE089E490E00E9400021E
:100BA00080E40E94FE010895CF92DF92EF92FF92BF
:100BB000CF93843090F5C82F64E070E0681B710912
:100BC000072E000C880B990B0E94A2079B01AC0119
:100BD00062E974E289E49FE30E94FF066B017C01F5
:100BE0008C2F0E948901BC01660F771F660F771F4B
:100BF000680F791F80E090E00E94A00720E030E0BD
:100C000040E85AE30E945208A70196010E94FF069D
:100C1000562F472F382F292F04C050E040E030E0F6
:100C200020E0652F742F832F922FCF91FF90EF90AC
:100C3000DF90CF9008958F929F92AF92BF92CF9204
:100C4000DF92EF92FF924B015C0120E030E0A901BE
:100C50000E94FA0688233CF48DE20E94E404B7FA6D
:100C6000B094B7F8B094C501B4010E9471070E9416
:100C70001F0580E0C12CD12C7601C39413C0CC0C8D
:100C8000DD1CEE1CFF1CB701A601440F551F661F9B
:100C9000771F440F551F661F771FC40ED51EE61E13
:100CA000F71E8F5F823058F38EE20E94E404C70182
:100CB000B6010E94A207A50194010E9452080E9459
:100CC0007107A70196010E94BF080E941F05FF90AF
:100CD000EF90DF90CF90BF90AF909F908F9008954E
:100CE000CF92DF92EF92FF92CF938430D8F56A01D2
:100CF0007B01C82F8FEC97E00197F1F700C000004F
:100D000081E690E00E940A058FEC97E00197F1F7E9
:100D100000C000006C2F70E06F5F7F4F072E000C4B
:100D2000880B990B0E941F058FEC97E00197F1F754
:100D300000C0000083E690E00E940A05C701B601EA
:100D40000E941B068FEC97E00197F1F700C00000AE
:100D500087E690E00E940A058FEC97E00197F1F793
:100D600000C00000CF91FF90EF90DF90CF900895EA
:100D70000E94AB050E948904809160008823E1F302
:100D800080916A00982F917080FD19C080E00E94C8
:100D9000D405AB01BC0180E00E94700681E00E9496
:100DA000D4056B017C0162E080E00E949E05B701E2
:100DB000A60181E00E94700610926000DDCF9923A9
:100DC000D9F282E00E94D405AB01BC0182E00E940E
:100DD000700683E00E94D4056B017C0162E080E034
:100DE0000E949E05B701A60183E00E947006109242
:100DF0006000C2CF0E94DD0708F481E008950E94E0
:100E000013070C9418080E94110858F00E940A0851
:100E100040F029F45F3F29F00C94010851110C9423
:100E20004C080C9407080E94290868F39923B1F331
:100E3000552391F3951B550BBB27AA276217730700
:100E4000840738F09F5F5F4F220F331F441FAA1F94
:100E5000A9F335D00E2E3AF0E0E832D09150504050
:100E6000E695001CCAF72BD0FE2F29D0660F771FFE
:100E7000881FBB1F261737074807AB07B0E809F0E4
:100E8000BB0B802DBF01FF2793585F4F3AF09E3F69
:100E9000510578F00C9401080C944C085F3FE4F382
:100EA000983ED4F3869577956795B795F7959F5FAC
:100EB000C9F7880F911D9695879597F90895E1E0F8
:100EC000660F771F881FBB1F621773078407BA0757
:100ED00020F0621B730B840BBA0BEE1F88F7E095B2
:100EE00008950E94310888F09F5798F0B92F9927EC
:100EF000B751B0F0E1F0660F771F881F991F1AF005
:100F0000BA95C9F714C0B13091F00E944B08B1E016
:100F100008950C944B08672F782F8827B85F39F015
:100F2000B93FCCF3869577956795B395D9F73EF49D
:100F300090958095709561957F4F8F4F9F4F089545
:100F4000E89409C097FB3EF4909580957095619563
:100F50007F4F8F4F9F4F9923A9F0F92F96E9BB2719
:100F60009395F695879577956795B795F111F8CF95
:100F7000FAF4BB0F11F460FF1BC06F5F7F4F8F4F00
:100F80009F4F16C0882311F096E911C0772321F0F6
:100F90009EE8872F762F05C0662371F096E8862F8E
:100FA00070E060E02AF09A95660F771F881FDAF7E5
:100FB000880F9695879597F90895990F0008550F12
:100FC000AA0BE0E8FEEF16161706E807F907C0F0CF
:100FD00012161306E407F50798F0621B730B840BD7
:100FE000950B39F40A2661F0232B242B252B21F4B1
:100FF00008950A2609F4A140A6958FEF811D811D51
:10100000089597F99F6780E870E060E008959FEF8A
:1010100080EC089500240A9416161706180609068F
:10102000089500240A94121613061406050608955E
:10103000092E0394000C11F4882352F0BB0F40F4E6
:10104000BF2B11F460FF04C06F5F7F4F8F4F9F4F26
:10105000089557FD9058440F551F59F05F3F71F0A8
:101060004795880F97FB991F61F09F3F79F087950F
:101070000895121613061406551FF2CF4695F1DF98
:1010800008C0161617061806991FF1CF8695710528
:10109000610508940895E894BB2766277727CB015C
:1010A00097F908950E9465080C9418080E940A0890
:1010B00038F00E94110820F0952311F00C940108DB
:1010C0000C94070811240C944C080E94290870F312
:1010D000959FC1F3950F50E0551F629FF001729FDD
:1010E000BB27F00DB11D639FAA27F00DB11DAA1FEC
:1010F000649F6627B00DA11D661F829F2227B00D39
:10110000A11D621F739FB00DA11D621F839FA00DC3
:10111000611D221F749F3327A00D611D231F849F13
:10112000600D211D822F762F6A2F11249F5750406A
:101130009AF0F1F088234AF0EE0FFF1FBB1F661FE5
:10114000771F881F91505040A9F79E3F510580F0AE
:101150000C9401080C944C085F3FE4F3983ED4F3E0
:10116000869577956795B795F795E7959F5FC1F752
:10117000FE2B880F911D9695879597F90895A1E20A
:101180001A2EAA1BBB1BFD010DC0AA1FBB1FEE1F01
:10119000FF1FA217B307E407F50720F0A21BB30B4C
:1011A000E40BF50B661F771F881F991F1A9469F7C8
:1011B00060957095809590959B01AC01BD01CF0124
:0611C0000895F894FFCF32
:0A11C600014300203D2000205600E8
:00000001FF
