:100000000C942A000C940B040C9437040C94630495
:100010000C9450030C9427030C94FE020C94D5020C
:100020000C94AC020C9483020C945A020C9431028E
:100030000C9447000C9447000C9447000C94470024
:100040000C94DE010C9447000C9447000C9447007C
:100050000C94470011241FBECFE5D8E0DEBFCDBF12
:1000600010E0A0E6B0E0E6ECF3E102C005900D92EE
:10007000A238B107D9F720E0A2E8B0E001C01D9294
:10008000A23CB207E1F70E94EB060C94E1090C9444
:1000900000001092BA001092BB001092BC001092A7
:1000A000BD001092B6001092B7001092B8001092E6
:1000B000B9001092BE001092BF001092C0001092C2
:1000C000C1001092AE001092AF001092B0001092DA
:1000D000B1000895809185008F5F80938500843002
:1000E00010F0109285000895843008F072C06830D6
:1000F00008F06FC0423008F06CC0813001F130F080
:100100008230B1F1833009F44CC00895413059F484
:100110002AB381E090E002C0880F991F6A95E2F748
:10012000822B8ABB08952AB381E090E002C0880F39
:10013000991F6A95E2F7809582238ABB0895413022
:1001400059F427B381E090E002C0880F991F6A95A7
:10015000E2F7822B87BB089527B381E090E002C0CD
:10016000880F991F6A95E2F78095822387BB0895CF
:10017000413059F424B381E090E002C0880F991F08
:100180006A95E2F7822B84BB089524B381E090E066
:1001900002C0880F991F6A95E2F78095822384BB7D
:1001A0000895413059F421B381E090E002C0880FF6
:1001B000991F6A95E2F7822B81BB089521B381E0F4
:1001C00090E002C0880F991F6A95E2F7809582231C
:1001D00081BB0895843008F072C0683008F06FC0A9
:1001E000423008F06CC0813001F130F08230B1F162
:1001F000833009F44CC00895413059F42BB381E0A9
:1002000090E002C0880F991F6A95E2F7822B8BBBA2
:1002100008952BB381E090E002C0880F991F6A9582
:10022000E2F7809582238BBB0895413059F428B3BF
:1002300081E090E002C0880F991F6A95E2F7822B57
:1002400088BB089528B381E090E002C0880F991F11
:100250006A95E2F78095822388BB0895413059F46E
:1002600025B381E090E002C0880F991F6A95E2F7FC
:10027000822B85BB089525B381E090E002C0880FF2
:10028000991F6A95E2F78095822385BB08954130D6
:1002900059F422B381E090E002C0880F991F6A955B
:1002A000E2F7822B82BB089522B381E090E002C086
:1002B000880F991F6A95E2F78095822382BB089583
:1002C000843098F4813049F028F0823049F083304E
:1002D00051F008958FEF8ABB08958FEF87BB089583
:1002E0008FEF84BB08958FEF81BB0895843078F43D
:1002F000813041F028F0823039F0833039F00895B0
:100300006BBB089568BB089565BB089562BB0895F3
:1003100087B18F7B87B987B18F7787B987B18F7D99
:1003200087B986B1887F86B986B1866086B986B17D
:10033000806286B980B7817180BF80B780BF86B187
:10034000806886B9089586B1877F86B9089586B199
:10035000806186B9089586B1806486B9089597B1A1
:10036000907E97B997B1892B87B90E94AB0180E045
:1003700090E0DC0103C00196A11DB11D349907C0B6
:1003800088382DE0920721E0A207B105A0F3883854
:100390009D40A140B10579F08FE19EE40197F1F70E
:1003A00000C000000E94A70124B185B190E0982F01
:1003B0008827822B089580E090E008951F920F9285
:1003C0000FB60F9211242F933F934F935F936F9328
:1003D0007F938F939F93AF93BF93EF93FF93E0919E
:1003E000AC00F091AD0024B185B190E0982F882742
:1003F000822B91838083E0E0F0E009950E94A301C5
:10040000FF91EF91BF91AF919F918F917F916F91EC
:100410005F914F913F912F910F900FBE0F901F90C2
:10042000189583B78F7B83BF83B7877F83BF89B7D7
:10043000816089BF83B78B7F83BF83B7826083BFAF
:1004400083B78E7F83BF089582BF0895009741F0E0
:10045000E62FF0E0EE0FFF1FE457FF4F91838083FC
:1004600008951F920F920FB60F9211242F933F936E
:100470004F935F936F937F938F939F93AF93BF93AC
:10048000EF93FF93E091A200F091A300309709F061
:100490000995FF91EF91BF91AF919F918F917F91BE
:1004A0006F915F914F913F912F910F900FBE0F90E1
:1004B0001F9018951F920F920FB60F9211242F9331
:1004C0003F934F935F936F937F938F939F93AF93DC
:1004D000BF93EF93FF93E091A000F091A1003097BC
:1004E00009F00995FF91EF91BF91AF919F918F9185
:1004F0007F916F915F914F913F912F910F900FBE20
:100500000F901F9018951F920F920FB60F92112403
:100510002F933F934F935F936F937F938F939F930B
:10052000AF93BF93EF93FF93E0919E00F0919F00F4
:10053000309709F00995FF91EF91BF91AF919F918D
:100540008F917F916F915F914F913F912F910F907C
:100550000FBE0F901F9018951F920F920FB60F921B
:1005600011242F933F934F935F936F937F938F93B8
:100570009F93AF93BF93EF93FF93E0919C00F09113
:100580009D00309709F00995FF91EF91BF91AF91D0
:100590009F918F917F916F915F914F913F912F919B
:1005A0000F900FBE0F901F9018951F920F920FB6CD
:1005B0000F9211242F933F934F935F936F937F93E9
:1005C0008F939F93AF93BF93EF93FF93E0919A0024
:1005D000F0919B00309709F00995FF91EF91BF9141
:1005E000AF919F918F917F916F915F914F913F91CB
:1005F0002F910F900FBE0F901F9018951F920F9282
:100600000FB60F9211242F933F934F935F936F93E5
:100610007F938F939F93AF93BF93EF93FF93E0915B
:100620009800F0919900309709F00995FF91EF91AA
:10063000BF91AF919F918F917F916F915F914F91FA
:100640003F912F910F900FBE0F901F9018951F9202
:100650000F920FB60F9211242F933F934F935F93F6
:100660006F937F938F939F93AF93BF93EF93FF937A
:10067000E0919600F0919700309709F00995FF916D
:10068000EF91BF91AF919F918F917F916F915F910A
:100690004F913F912F910F900FBE0F901F90189583
:1006A0001F920F920FB60F9211242F933F934F93E7
:1006B0005F936F937F938F939F93AF93BF93EF93CA
:1006C000FF93E0919400F0919500309709F009951F
:1006D000FF91EF91BF91AF919F918F917F916F911A
:1006E0005F914F913F912F910F900FBE0F901F90F0
:1006F000189585B7816085BF85B78D7F85BF0895C3
:10070000663031F0673041F1653009F055C048C0BE
:10071000813069F028F0823089F08330B1F008959B
:1007200085B78E7F85BF85B7826085BF089585B701
:10073000816085BF85B7826085BF089585B78E7F4C
:1007400085BF85B78D7F85BF089585B7816085BFDB
:1007500085B78D7F85BF0895813069F028F082309C
:1007600089F08330B1F0089585B78B7F85BF85B759
:10077000886085BF089585B7846085BF85B7886028
:1007800085BF089585B78B7F85BF85B7877F85BF78
:10079000089585B7846085BF85B7877F85BF089535
:1007A000882319F0813029F0089584B78F7B84BFA6
:1007B000089584B7806484BF08959BEF980F9330A9
:1007C00060F44BB721E030E0B90102C0660F771F3B
:1007D0008A95E2F7CB01842B8BBF08959BEF980F8E
:1007E000933068F44AB721E030E0B90102C0660FE7
:1007F000771F8A95E2F7CB01809584238ABF0895FD
:10080000009741F0E62FF0E0EE0FFF1FEA57FF4F91
:100810009183808308951F920F920FB60F92112437
:100820002F933F934F935F936F937F938F939F93F8
:10083000AF93BF93EF93FF93E0918600F091870011
:10084000309721F0099586E00E94EE03FF91EF9129
:10085000BF91AF919F918F917F916F915F914F91D8
:100860003F912F910F900FBE0F901F9018951F92E0
:100870000F920FB60F9211242F933F934F935F93D4
:100880006F937F938F939F93AF93BF93EF93FF9358
:10089000E0918800F0918900309721F0099587E078
:1008A0000E94EE03FF91EF91BF91AF919F918F91C5
:1008B0007F916F915F914F913F912F910F900FBE5C
:1008C0000F901F9018951F920F920FB60F92112440
:1008D0002F933F934F935F936F937F938F939F9348
:1008E000AF93BF93EF93FF93E0918A00F0918B0059
:1008F000309721F0099585E00E94EE03FF91EF917A
:10090000BF91AF919F918F917F916F915F914F9127
:100910003F912F910F900FBE0F901F901895CF937E
:10092000C82F40E060E081E00E94EA0040E061E022
:1009300081E00E94EA006C2F82E00E94760141E093
:1009400062E081E00E94EA0082E08A95F1F700C04F
:1009500040E062E081E00E94EA00CF91089541E02A
:1009600060E081E00E94740041E061E081E00E946B
:10097000740041E062E081E00E9474006FEF82E069
:100980000E9460012FEB8AED90E021508040904062
:10099000E1F700C0000088E30E948F0425E82A9553
:1009A000F1F700008FE00E948F0485E88A95F1F747
:1009B000000081E00E948F048FE99FE00197F1F72A
:1009C00000C0000086E00E948F0495E89A95F1F738
:1009D0000000089581E00E948F048FE99FE0019755
:1009E000F1F700C000000895CF93C82F41E060E008
:1009F00081E00E94EA0040E061E081E00E94EA00BC
:100A00006C2F82E00E94760141E062E081E00E946A
:100A1000EA0082E08A95F1F700C040E062E081E000
:100A20000E94EA008FE19EE40197F1F700C0000008
:100A3000CF9108950F931F93CF93009761F08C018E
:100A4000C0E003C00E94F404CF5FF801EC0FF11D79
:100A500080818111F7CFCF911F910F9108958F92CF
:100A60009F92AF92BF92CF92DF92EF92FF921F932D
:100A7000CF93DF93CDB7DEB72A970FB6F894DEBFDA
:100A80000FBECDBF6B017C0160E070E0CB0110E0D8
:100A900025C0DC01CB01880F991FAA1FBB1F4C0189
:100AA0005D01880C991CAA1CBB1C880C991CAA1CF3
:100AB000BB1C880E991EAA1EBB1EC701B6012AE0E8
:100AC00030E040E050E00E94BF09680D791D8A1DAA
:100AD0009B1DC22ED32EE42EF52E1F5FC114D10410
:100AE000E104F104B1F6F12C13C02AE030E040E05B
:100AF00050E00E94BF09E1E0F0E0EC0FFD1FEC0DBB
:100B0000FD1D605D6083622F732F842F952FF394FA
:100B1000CF2C0F2C000CDD08212F30E0C216D3069D
:100B200024F3E1E0F0E0EC0FFD1FE20FF31F108271
:100B3000CE0101960E941A052A960FB6F894DEBFE0
:100B40000FBECDBFDF91CF911F91FF90EF90DF904F
:100B5000CF90BF90AF909F908F9008950E94880192
:100B6000089580E00E94AF01BC01660F771F660FF9
:100B7000771F680F791F80E090E00E94A00820E0B6
:100B800030E040E85AE30E94520920E030E040EAB9
:100B900050E40E94520908950E948801089580E05F
:100BA0000E94AF01BC01660F771F660F771F680FA9
:100BB000791F80E090E00E94A00820E030E040E84B
:100BC0005AE30E94520920E030E040E250E40E94E3
:100BD0008D0722E03BE247E85DE30E94FF070895AE
:100BE000809182009091830083349F4009F046C039
:100BF00081E0809384000E94EA040E94B105609322
:100C0000BA007093BB008093BC009093BD000E941B
:100C1000CF056093B6007093B7008093B8009093AF
:100C2000B9002091BA003091BB004091BC005091B6
:100C3000BD000E9452099B01AC016093BE007093FD
:100C4000BF008093C0009093C1006091AE0070918E
:100C5000AF008091B0009091B1000E948E07609328
:100C6000AE007093AF008093B0009093B1001092EB
:100C700083001092820080E40E942402809182000E
:100C80009091830001969093830080938200089551
:100C90000E94CC050E94AE0578940E94790366E01C
:100CA00081E00E94800386E00E94DD0360E089E429
:100CB00090E00E94000467E081E00E94800387E0EA
:100CC0000E94DD0361E08AE690E00E9400040E9439
:100CD00011026BE080EF95E00E94260280E40E9402
:100CE000240208956091BA007091BB008091BC000D
:100CF0009091BD0008956091B6007091B700809109
:100D0000B8009091B90008956091BE007091BF0045
:100D10008091C0009091C10008956091AE007091E3
:100D2000AF008091B0009091B10008958F929F9292
:100D3000AF92BF92CF92DF92EF92FF924B015C0194
:100D400020E030E0A9010E94FA0788233CF48DE2FC
:100D50000E94F404B7FAB094B7F8B094C501B40196
:100D60000E9471080E942F0580E0C12CD12C7601D1
:100D7000C39413C0CC0CDD1CEE1CFF1CB701A601F4
:100D8000440F551F661F771F440F551F661F771F9F
:100D9000C40ED51EE61EF71E8F5F823058F38EE21A
:100DA0000E94F404C701B6010E94A208A5019401A3
:100DB0000E9452090E947108A70196010E94BF0972
:100DC0000E942F05FF90EF90DF90CF90BF90AF90E3
:100DD0009F908F9008950E9448060E94AF048091D2
:100DE00084008130E1F780918500813059F138F03D
:100DF000823009F44AC0833009F46AC08BC00E9473
:100E00007B066B017C0180E690E00E941A058FEC66
:100E100097E00197F1F700C00000C701B6010E94FA
:100E200096068FEC97E00197F1F700C0000085E689
:100E300090E00E941A058FEC97E00197F1F700C04F
:100E4000000068C00E9472066B017C0188E690E099
:100E50000E941A058FEC97E00197F1F700C000009F
:100E6000C701B6010E9496068FEC97E00197F1F753
:100E700000C000008DE690E00E941A058FEC97E01C
:100E80000197F1F700C0000045C00E9484066B0185
:100E90007C0180E790E00E941A058FEC97E00197B3
:100EA000F1F700C00000C701B6010E9496068FEC62
:100EB00097E00197F1F700C0000085E790E00E94FD
:100EC0001A058FEC97E00197F1F700C0000022C0EF
:100ED0000E948D066B017C0188E790E00E941A0554
:100EE0008FEC97E00197F1F700C00000C701B60151
:100EF0000E9496068FEC97E00197F1F700C0000082
:100F00008DE790E00E941A058FEC97E00197F1F7CA
:100F100000C000001092840062CF5058BB27AA275F
:100F20000E94A5070C9418090E940A0938F00E9433
:100F3000110920F039F49F3F19F426F40C940709A5
:100F40000EF4E095E7FB0C940109E92F0E942909B2
:100F500058F3BA17620773078407950720F079F4EE
:100F6000A6F50C944B090EF4E0950B2EBA2FA02D8C
:100F70000B01B90190010C01CA01A0011124FF2746
:100F8000591B99F0593F50F4503E68F11A16F04041
:100F9000A22F232F342F4427585FF3CF4695379540
:100FA0002795A795F0405395C9F77EF41F16BA0B05
:100FB000620B730B840BBAF09150A1F0FF0FBB1FB3
:100FC000661F771F881FC2F70EC0BA0F621F731FFC
:100FD000841F48F4879577956795B795F7959E3F59
:100FE00008F0B0CF9395880F08F09927EE0F9795EA
:100FF000879508950E94DD0808F481E008950E9415
:1010000013080C9418090E94110958F00E940A094B
:1010100040F029F45F3F29F00C94010951110C9420
:101020004C090C9407090E94290968F39923B1F32C
:10103000552391F3951B550BBB27AA2762177307FE
:10104000840738F09F5F5F4F220F331F441FAA1F92
:10105000A9F335D00E2E3AF0E0E832D0915050404E
:10106000E695001CCAF72BD0FE2F29D0660F771FFC
:10107000881FBB1F261737074807AB07B0E809F0E2
:10108000BB0B802DBF01FF2793585F4F3AF09E3F67
:10109000510578F00C9401090C944C095F3FE4F37E
:1010A000983ED4F3869577956795B795F7959F5FAA
:1010B000C9F7880F911D9695879597F90895E1E0F6
:1010C000660F771F881FBB1F621773078407BA0755
:1010D00020F0621B730B840BBA0BEE1F88F7E095B0
:1010E00008950E94310988F09F5798F0B92F9927E9
:1010F000B751B0F0E1F0660F771F881F991F1AF003
:10110000BA95C9F714C0B13091F00E944B09B1E013
:1011100008950C944B09672F782F8827B85F39F012
:10112000B93FCCF3869577956795B395D9F73EF49B
:1011300090958095709561957F4F8F4F9F4F089543
:10114000E89409C097FB3EF4909580957095619561
:101150007F4F8F4F9F4F9923A9F0F92F96E9BB2717
:101160009395F695879577956795B795F111F8CF93
:10117000FAF4BB0F11F460FF1BC06F5F7F4F8F4FFE
:101180009F4F16C0882311F096E911C0772321F0F4
:101190009EE8872F762F05C0662371F096E8862F8C
:1011A00070E060E02AF09A95660F771F881FDAF7E3
:1011B000880F9695879597F90895990F0008550F10
:1011C000AA0BE0E8FEEF16161706E807F907C0F0CD
:1011D00012161306E407F50798F0621B730B840BD5
:1011E000950B39F40A2661F0232B242B252B21F4AF
:1011F00008950A2609F4A140A6958FEF811D811D4F
:10120000089597F99F6780E870E060E008959FEF88
:1012100080EC089500240A9416161706180609068D
:10122000089500240A94121613061406050608955C
:10123000092E0394000C11F4882352F0BB0F40F4E4
:10124000BF2B11F460FF04C06F5F7F4F8F4F9F4F24
:10125000089557FD9058440F551F59F05F3F71F0A6
:101260004795880F97FB991F61F09F3F79F087950D
:101270000895121613061406551FF2CF4695F1DF96
:1012800008C0161617061806991FF1CF8695710526
:10129000610508940895E894BB2766277727CB015A
:1012A00097F908950E9465090C9418090E940A098B
:1012B00038F00E94110920F0952311F00C940109D7
:1012C0000C94070911240C944C090E94290970F30D
:1012D000959FC1F3950F50E0551F629FF001729FDB
:1012E000BB27F00DB11D639FAA27F00DB11DAA1FEA
:1012F000649F6627B00DA11D661F829F2227B00D37
:10130000A11D621F739FB00DA11D621F839FA00DC1
:10131000611D221F749F3327A00D611D231F849F11
:10132000600D211D822F762F6A2F11249F57504068
:101330009AF0F1F088234AF0EE0FFF1FBB1F661FE3
:10134000771F881F91505040A9F79E3F510580F0AC
:101350000C9401090C944C095F3FE4F3983ED4F3DC
:10136000869577956795B795F795E7959F5FC1F750
:10137000FE2B880F911D9695879597F90895A1E208
:101380001A2EAA1BBB1BFD010DC0AA1FBB1FEE1FFF
:10139000FF1FA217B307E407F50720F0A21BB30B4A
:1013A000E40BF50B661F771F881F991F1A9469F7C6
:1013B00060957095809590959B01AC01BD01CF0122
:0613C0000895F894FFCF30
:1013C60049203D200020410056203D2000205600A7
:1013D60050203D200020570045203D200020572E5C
:0213E600730092
:00000001FF
